:020000040800F2
:10000000680D002045010008C74A0008C13D0008EE
:10001000C54A000861120008795900080000000074
:100020000000000000000000000000002152000855
:100030003115000800000000814E000885520008BC
:100040005F0100085F0100085F0100085F01000810
:100050005F0100085F0100085F0100085F01000800
:100060005F0100085F0100085F0100085F010008F0
:100070005F0100085F0100085F0100085F010008E0
:100080005F0100085F0100085F0100085F010008D0
:100090005F0100085F0100085F0100085F010008C0
:1000A0005F0100085F0100085F0100085F010008B0
:1000B000055300085F0100085F0100085F010008A8
:1000C0005F0100085F0100085F0100085F01000890
:1000D0005F010008615900086D5900085F010008C0
:1000E000491500085F0100085F0100085F01000872
:1000F0005F0100085F0100085F0100085F01000860
:100100005F0100085F0100085F0100085F0100084F
:100110005F010008D55600085F0100085F01000874
:100120005F0100085F0100085F0100085F0100082F
:10013000DFF80CD000F0AAFD004800477D750008EC
:10014000680D00200648804706480047FEE7FEE7A6
:10015000FEE7FEE7FEE7FEE7FEE7FEE7FEE7FEE777
:1001600003530008310100082DE9F0410024061B6B
:10017000254671F1000605DA01240027D0EB0700BF
:1001800067EB0101161E73F1000605DA0027D2EBBA
:100190000702012567EB030300F050FC86460E467C
:1001A00017469C46AC4204D00025D0EB050E65EB0B
:1001B000010624B10020D2EB000760EB030C70466F
:1001C00031463A466346BDE8F081202A04DB203AF6
:1001D00021FA02F00021704721FA02F3D040C2F167
:1001E00020029140084319467047D2B201E000F85E
:1001F000012B491EFBD270470022F6E710B51346CB
:100200000A4604461946FFF7F0FF204610BD30B5F8
:1002100005462A460B4612F8010B13F8014B08B1AC
:10022000A042F8D01CB1002802D06D1CF1E728468E
:1002300030BD421C10F8011B0029FBD1801A704709
:1002400030B504460020034600E05B1C934203D215
:10025000E05CCD5C401BF8D030BD00000FB400B5B1
:100260008DB010A909900B9000914FF0FF300A90CB
:1002700000200C9005480690054807906A4609A89A
:100280000F9900F041FC0DB05DF814FB250B000840
:10029000430B00082DE9FF5F1D464FF0FF3BD5E9FA
:1002A000014691465F464FF00008A9697F1C0198FE
:1002B0008847296A824688470028F6D1BAF1FF3F6D
:1002C0000CD024F4C064002E19DD600614D5BAF1F8
:1002D0002B0F09D0BAF12D0F0ED103E0584604B010
:1002E000BDE8F09F44F48064A9697F1C01988847A9
:1002F000761E8246002E02DDBAF1300F03D0B9F12E
:10030000000F26D032E0A969761E44F400747F1CE9
:10031000019888478246002E05DDBAF1780F06D095
:10032000BAF1580F03D0B9F1000F10D01EE0B9F1A7
:10033000000F02D0B9F1100F18D1A969761E24F46C
:1003400000747F1C019888478246102002E0082034
:1003500000E00A20814609E008FB0908A969761E29
:1003600044F400747F1C019888478246002E05DD06
:100370004946504600F0B4FB0028EDDAE9690198DF
:100380008847A00502D46FF00100A8E7E00725D157
:10039000600613D5600502D5C8F1000000E04046B4
:1003A00029680A1D2A600968220501D5087015E030
:1003B000220701D5088011E008600FE02868011DC0
:1003C00029600068210502D580F8008006E0210739
:1003D00002D5A0F8008001E0C0F8008038467EE732
:1003E000F0B480EA0102D40F4200B2EB410F02D216
:1003F0000246084611464A0042D0C30DDDB2C1F3A1
:10040000C752AD1A202D35DAC1F3160141F40002AE
:1004100004B15242C5F1200602FA06F12A41104405
:10042000B3EBD05F23D0C4B1012DA0EBC35009DCE6
:10043000F0BC4FF0004202EAC352DBB200F500000C
:1004400000F099BB400000F1807000EBC350A0F1B8
:10045000807040EAD170490009E0490841EAC07162
:10046000A0EBC35000F50000400800EBC350F0BC07
:1004700000F078BB6142012202EB4101001BF6E76C
:10048000F0BC704781F00041AAE780F00040A7E788
:1004900080EA010210B502F00043400022D04A0079
:1004A0001FD0010E01EB1261C0F35600C2F35602D9
:1004B00040F4000042F40002A0FB022000047F3957
:1004C000140400D0401C50EA124001D44000491EE0
:1004D000C2B20C0604EBD010401C4008802A02D0A7
:1004E00003E0002010BD20F00100002900DA002008
:1004F000184310BD30B480EA010202F0004530F02C
:10050000004221F0004013D090B1C30DD40DC2F3CE
:100510001601C0F31600E41A41F4000140F4000291
:100520007D34914201D3641C00E04900002C02DAC2
:1005300030BC002070474FF400000023914201D3EB
:10054000891A034340084FEA4101F7D151B1914262
:1005500002D14FF0004105E002D24FF0010101E06D
:100560006FF0010103EBC450284430BC00F0FABA2C
:10057000420005D0C0F3C7525242914201DC002034
:10058000704700EBC15070472DE9FE4F804681EA6D
:100590000300C00F0C46009021F0004123F00045FD
:1005A000B8EB0200A94105D24046214690461C46C0
:1005B0000B46024623F00040104347D0270DC7F3F7
:1005C0000A00C3F30A510290401A019040286BDAE6
:1005D000C3F3130040F4801B0098924620B100231F
:1005E000D2EB030A63EB0B0B01985946C0F14002B2
:1005F000504600F054FA06460D4650465946019AB8
:1006000000F05CFA10EB08006141002487EA115207
:1006100084EAE7731A4340D0009A62B3019A012A30
:100620004FEA075215DC001B61EB02014FF000425C
:1006300002EA0752CDE90042001C41F58011324622
:100640002B4600F0D5FA03B0BDE8F08F40462146B6
:10065000F9E7001B61EB0201001C41F58013001853
:100660005B412018A2F5001747EB030140EAD57063
:10067000B6196D4111E06D084FEA360645EAC075BE
:100680004FEA0752001B61EB0201001C41F580118B
:1006900049084FEA30000019514132462B4603B059
:1006A000BDE8F04F00F095BA009801224000002309
:1006B000D0EB020263EBE073009821464FEAE0744E
:1006C000B8EB000061EB0401E9E783F000435BE76E
:1006D00081F0004158E72DE9FE4F81EA030404F060
:1006E000004421F0004100944FF0000B23F0004340
:1006F00050EA01045ED052EA03045BD0C3F30A540B
:10070000C1F30A552C44A4F2F3340194A0FB025423
:10071000C1F3130141F48011C3F3130343F48013B5
:1007200001FB024400FB034E840A970A44EA815409
:1007300047EA8357A4FB076802958D0A05FB0785E6
:100740004FEA932C04FB0C542705029D4FEA0658F0
:1007500047EA1637B5EB08056EEB070C870E920ECD
:1007600047EA811742EA8312A7FB0201B6EB0B01AD
:1007700064EB00042B0D43EA0C335E1844EB1C5071
:10078000DA465146E7FB0201C5F313044FEA0B3387
:1007900043EA14534FEA0432019C43EA0603A4F1EE
:1007A0000C040294009CCDE900B400F021FA03B0DF
:1007B000BDE8F08F00200146F9E72DE9F04D81EA10
:1007C000030404F0004B21F0004514464FF0000AEA
:1007D00023F0004150EA050220D054EA01021DD066
:1007E000C5F30A570246C5F31303C1F31300C1F35F
:1007F0000A5640F4801543F48013A7EB0608101B3B
:10080000D64608F2FD3873EB050002D308F1010863
:1008100001E092185B41B8F1000F03DA00200146B5
:10082000BDE8F08D00204FF48011064684460EE0AE
:10083000171B73EB050705D3121B63EB0503064378
:100840004CEA010C49084FEA300092185B4150EA2B
:100850000107EDD152EA030012D082EA040083EAD4
:100860000501084305D0101BAB4106D2012200232D
:1008700006E000224FF0004302E06FF00102531047
:100880001AEB06004CEB085110EB0A0041EB0B0190
:10089000BDE8F04D00F09DB970B521F00043034371
:1008A0000CD0C1F30A550024D5EB040564EB040316
:1008B000D617AD1AB34102DB0020014670BD2018E7
:1008C00041EB025170BDC10F80EAE0700844CA07D5
:1008D0009623002100F04FB996230022114600F024
:1008E0004AB90EB5C10F80EAE0700844CA0700217A
:1008F00040F233438DE80E000A460B4600F078F9CB
:1009000003B000BD00F0004220F00040C10DC0F374
:10091000160040F400007F2901DA00207047962974
:1009200003DCC1F19601C84001E096398840002AF5
:10093000F4D04042704720F00040C10DC0F31600D3
:1009400040F400007F2901DA00207047962903DC7B
:10095000C1F19601C840704796398840704770B51C
:10096000C1F30A5201F000450024C1F3130140F223
:10097000FF3341F480119A4201DA002070BD40F249
:1009800033439A42A2F2334203DC5242FFF71DFC8A
:1009900000E090402C43F1D0404270BD00F0004296
:1009A00030F000400AD0C10D01F56071C0F31600AF
:1009B00042EA0151C2084007114370470020014636
:1009C000704701F0004330B421F0004150EA0102C9
:1009D00006D00A0DA2F56072C1F31301002A02DCF1
:1009E00030BC00207047440F44EAC104C100E01845
:1009F00030BC00EBC25000F0B5B80000002801DBAD
:100A0000C0F10040002901DBC1F100418142704783
:100A100030B50B46014600202022012409E021FACE
:100A200002F59D4205D303FA02F5491B04FA02F5CB
:100A30002844151EA2F10102F1DC30BD2DE9F05F62
:100A40000546002092469B4688460646814640243D
:100A50001BE02846414647462246FFF7B6FB534671
:100A60005A46C01A914110D311461846224600F04A
:100A700016F82D1A67EB01084F4622460120002187
:100A800000F00DF817EB00094E41201EA4F10104FF
:100A9000DFDC484631462A464346BDE8F09F202A1F
:100AA00004DB203A00FA02F1002070479140C2F1C5
:100AB000200320FA03F3194390407047202A06DBF5
:100AC000CB17203A41FA02F043EAE07306E041FA1C
:100AD00002F3D040C2F1200291400843194670470A
:100AE0003A2800D2303820F02002412A01D3A2F166
:100AF0003700884201D34FF0FF307047026811443D
:100B00001378016018467047D16004495161044967
:100B1000116200211161114600F0D0B8FD0A0008F1
:100B2000B10C0008426842B1016811F8013B23B1E1
:100B3000521EC0E90012184670470121C160881E8C
:100B4000704742685AB1C368016843B983688B42F1
:100B500005D0491E521CC0E90012002070474FF01A
:100B6000FF3070470029A8BF7047401C490008BFEC
:100B700020F00100704710B4B0FA80FC00FA0CF0CD
:100B800050EA010404BF10BC704749B1CCF1200405
:100B900021FA04F411FA0CF118BF01212143084392
:100BA000A3EB0C01CB1D4FEA00614FEA102042BFBE
:100BB000002010BC704700EBC35010440029A4BFB4
:100BC00010BC7047401C490008BF20F0010010BC59
:100BD000704710B5141E73F1000408DA401C41F18F
:100BE000000192185B411A4301D120F0010010BDB1
:100BF0002DE9F04D92469B4611B1B1FA81F202E027
:100C0000B0FA80F220329046FFF749FF04460F46C3
:100C100040EA0A0041EA0B0153465A46084313D002
:100C2000114653EA010019D0C8F140025046FFF7BF
:100C3000CCFA05460E46504659464246FFF72FFF6E
:100C4000084305D0012004E020463946BDE8F08D78
:100C50000020054346EAE0762C4337430A986305B3
:100C6000E40AA0EB08000022FD0A44EA47540A30D7
:100C700002D500200146E9E7010510196941DDE9C7
:100C8000084500196941BDE8F04DA2E7064C074D43
:100C900006E0E06840F0010394E80700984710344C
:100CA000AC42F6D3FFF748FA50A1000870A1000843
:100CB000C0B24FF4F05100F0E9B900002DE9F34F54
:100CC0008BB04FF0000801F10C000C464FF0010B07
:100CD00046460DF1080A019062690121019890478A
:100CE000051E2DD0252D2CD0216A8847C0B1626900
:100CF000012101989047216A88470028F7D1411EB9
:100D000062690198904700E0761CA1690B988847BA
:100D1000216A88470028F7D1E1690B988847DBE70B
:100D2000A1690B9888470746A84201D1761CD3E7F2
:100D3000E1690B9888477F1C02D1B8F1000F6FD092
:100D400046E1002762693D463946019890472A28C6
:100D500004D162690121019890470125DFF884924E
:100D60006269012101989047A0F130010A290AD255
:100D70004F45E5DC07EB870100EB4107303FDFD44F
:100D800045F01005ECE7E90601D46FF000476C2848
:100D90000AD04C2814D0682815D06A280DD07428A1
:100DA0001CD07A281AD01DE0626901210198904771
:100DB0006C2802D045F0040514E045F002050DE072
:100DC00045F020050AE062690121019890476828F2
:100DD00002D045F0080505E045F40065626901218F
:100DE00001989047C4E9015765283DD019DC58287F
:100DF0007AD00CDC452837D004DC252826D04128C1
:100E000031D131E046282FD047282CD12CE05B2867
:100E100077D0612828D063287CD0642823D15AE079
:100E2000D0E06F2848D008DC66281DD067281BD08A
:100E3000692821D06E2816D127E0702845D0732864
:100E400068D0752847D078280DD14DE0A1690B985E
:100E50008847054625283FF469AFE1690B98884724
:100E60006D1C3FF46AAFB3E023466A466FF00100A1
:100E70000B99AFF300809EE045F040006060A8074A
:100E800023464FF0000236D43EE0E8077FF447AF38
:100E90002068011D21600068290501D506701BE747
:100EA000290701D5068017E7A90703D5F117C0E97F
:100EB000006111E706600FE745F040006060A80799
:100EC00023464FF0080216D41EE040F60E0125EA34
:100ED0000100606016E045F040006060A80723460E
:100EE0004FF00A0207D40FE045F040006060A80709
:100EF00008D5234610226FF001000B99AFF3008054
:100F000059E007E0234610226FF001000B99FFF72C
:100F1000C1F950E04FF000094F464B46632802D01C
:100F20005B2806D040E0E80601D40120A06001273C
:100F30003AE062690121019890475E2805D14FF09F
:100F400001096269494601989047216939B9002130
:100F50000A46534643F82120491C0829FADBB0B35E
:100F6000216969B9C11700EBD16253110AEB830102
:100F700022F01F02821A01200B68904003430B608D
:100F800062690121019890475D28E8D1B9F1000F0D
:100F900009D00020514651F82020D24341F82020AA
:100FA000401C0828F7DB02AB224600976FF00100D7
:100FB0000B99AFF3008000280CDA401C08D1BBF17C
:100FC000000F05D04FF0FF300DB0BDE8F08FFFE708
:100FD0004046F9E7E90701D108F1010806444FF05E
:100FE000000B79E6CCCCCC0C2DE9F04D00231A4651
:100FF0001B1A8A4103DB00200146BDE8F08DC1F3D6
:101000000A52C1F3130141F480154FF0000BD107D0
:1010100002D100186D41521E0027044640F2FF1114
:10102000384601EB620A3E468046024600204FF4F5
:101030008011FFF7CAF8C2197141BB1846EB0100D5
:10104000B4EB030C75EB000C04D3E41A65EB00055C
:1010500017460E46241908F101006D4180463428D8
:10106000E3DDF91946EB0600091BA84103D24FF056
:10107000FF32134601E0002213461BEB070046EB4C
:101080000A51BDE8F04DFFF7A4BD00007F2801D94B
:10109000002208E0064A02EB5002C007127800D195
:1010A000120902F00F020120904008407047000032
:1010B000709E000870B58C1810F8015B15F00703DE
:1010C00001D110F8013B2A1106D110F8012B03E0E1
:1010D00010F8016B01F8016B5B1EF9D12B0705D4E9
:1010E0000023521E0DD401F8013BFAE710F8013B32
:1010F000CB1A921C03E013F8015B01F8015B521E4E
:10110000F9D5A142D8D3002070BD000070B50446C7
:1011100000688168C943C90717D1816821F00101BE
:10112000816000F0E1FF05460AE000BF00F0DCFF4F
:10113000401B022804D920688068C043C00706D03D
:1011400020688068C043C007F0D0002070BDA06A4E
:1011500040F01000A062E06A40F00100E06201206F
:1011600070BD0000F8B5002604460096006881684E
:10117000C943C9072DD0816841F00101816016483B
:1011800016490068B0FBF1F000E0401E0090002816
:10119000FBD100F0A9FF054616E000BF00F0A4FF58
:1011A000401B022810D920688068C043C0070BD0BC
:1011B000A06A40F01000A062E06A40F00100E06226
:1011C00084F824600120F8BD20688068C043C0070F
:1011D000E4D10020F8BD00007400002040420F0060
:1011E00070B5054616480C460068FFF76CFB2946AB
:1011F000FFF748F9064684F00040124C216DFFF7D6
:1012000047F91149FFF776F905461049E06CFFF7F9
:1012100071F93146FFF73CF92946FFF733F9FFF73B
:1012200071FB0B490978032908D1FFF74CFB2168B2
:10123000FFF72EF9BDE87040FFF764BB70BD0000FA
:101240005C000020F00000200000C8420000C8C27E
:1012500003000020014800F089BB000018040020B2
:10126000FEE70000152801D302A07047054951F898
:1012700020007047496E76616C6964206D6F64650B
:1012800000000000E40100202DE9F0410D4C0A4669
:1012900007460B4E10462168FFF7FAF8216BFFF75F
:1012A0009FF801460848FFF7F3F8054631463846EF
:1012B000FFF7EEF82946FFF793F82063BDE8F081C9
:1012C0000AD7A33C8C02002048E17A3F2DE9F04187
:1012D0000D4C0A4607460B4E10462168FFF7D8F81A
:1012E000216EFFF77DF801460848FFF7D1F8054663
:1012F00031463846FFF7CCF82946FFF771F82066EB
:10130000BDE8F0810AD7A33C8C02002048E17A3F77
:1013100038B5002000906B4601227521682006F048
:1013200009F89DF8000068280CD0BFF34F8F2D48B6
:1013300001682D4A01F4E06111430160BFF34F8F52
:1013400000BFFDE706F0D4FB002849D1782007F064
:101350008DF810B925A004F0B5FB782006F0FAFA54
:1013600010B92BA004F0AEFBC82007F03FF810B96D
:1013700031A004F0A7FB05F01FFA10B938A004F063
:10138000A1FB4448044606F0D5F80546E01C06F0EB
:10139000D1F845EAC005A01D06F0CCF845EA80105A
:1013A00080B205F0B9FB10B93BA004F08BFB40F212
:1013B000731005F0D9F810B941A004F083FBC820E0
:1013C00005F012FB10B948A004F07CFB07F0C2F94D
:1013D000012006F031FF002802D14CA004F072FB7E
:1013E00038BD00000CED00E00400FA056D70755F7B
:1013F0007365745F73656E736F7220636F6D706C6D
:10140000657465202E2E2E2E2E2E0D0A0000000053
:101410006D70755F636F6E6669677572655F66692B
:10142000666F20636F6D706C657465202E2E2E2E96
:101430002E2E0D0A000000006D70755F7365745FDD
:1014400073616D706C655F7261746520636F6D7040
:101450006C657465202E2E2E2E2E2E0D0A00000097
:10146000646D705F6C6F61645F6D6F74696F6E5FE8
:101470006472697665725F6669726D776172652004
:10148000636F6D706C657465202E2E2E2E2E2E0DC2
:101490000A000000D8000020646D705F7365745FFF
:1014A0006F7269656E746174696F6E20636F6D70C1
:1014B0006C657465202E2E2E2E2E2E0D0A00000037
:1014C000646D705F656E61626C655F6665617475A1
:1014D000726520636F6D706C657465202E2E2E2EE4
:1014E0002E2E0D0A00000000646D705F7365745F3E
:1014F0006669666F5F7261746520636F6D706C659D
:101500007465202E2E2E2E2E2E0D0A006D70755F06
:101510007365745F646D705F737461746520636F6D
:101520006D706C657465202E2E2E2E2E2E0D0A00E9
:10153000704706E00021491CC9B20A29FBD3401EAE
:10154000C0B20028F6D170474FF4805000F0BABC0A
:1015500072B6FEE72DE9F04F8DB0044603F076FD3C
:10156000BC49DFF8F4B2BD4F0860012C7ED04421A5
:10157000D02002F026FC04464321D02002F021FCBA
:1015800004EB0020FFF7A8F906464621D02002F020
:1015900018FC04464521D02002F013FC04EB002087
:1015A000FFF79AF982464821D02002F00AFC04464F
:1015B0004721D02002F005FC04EB0020FFF78CF956
:1015C00005463C21D02002F0FCFB04463B21D02004
:1015D00002F0F7FB04EB0020FFF77EF981463E2185
:1015E000D02002F0EEFB04463D21D02002F0E9FBC2
:1015F00004EB0020FFF770F980464021D02002F074
:10160000E0FB04463F21D02002F0DBFB04EB00208E
:10161000FFF762F90446B6F18E4F05DD4FF08F41BA
:101620003046FEF72FFF06465046BAF18E4F04DDD6
:101630004FF08F41FEF726FF8246B5F18E4F05DD54
:101640004FF08F412846FEF71DFF05464846B9F189
:101650008E4F04DD4FF08F41FEF714FF8146404668
:10166000B8F18E4F06DD4FF08F4100E060E0FEF7ED
:1016700009FF8046B4F18E4F05DD4FF08F412046C3
:10168000FEF700FF044686F000414846CBF8001004
:10169000FFF784F9DFF8C891DFF8C8B14A465B4626
:1016A000CDE90901FFF789F8FFF78BF90C90404667
:1016B000FFF774F94A465B46CDE90701FFF77DF86D
:1016C000FFF77FF90B902046FFF768F94A465B4623
:1016D000CDE90101FFF771F8FFF773F9009030468B
:1016E000FFF75CF9DFF880914FF0663632464B46E3
:1016F000CDE90501FFF761F8FFF763F98046504631
:10170000FFF74CF932464B46CDE90301FFF755F898
:10171000FFF757F906465548DFF854A1DFF854B1F2
:101720000078DFF8549102281ED0032843D089E0C6
:1017300003F0A8FB5148524C39680160B4F900002D
:10174000FFF7C1F8CBF80000B4F90400FFF7BBF8CD
:101750004C4908604C48B0F90400FFF7B4F84B4915
:1017600008600DB0BDE8F08F88F0004200990B983A
:1017700002F0D2FCFFF712F952465B46FFF71DF864
:1017800000224B46FEF7A7FFFFF71BF938603246F1
:1017900000990C9802F0ECFDFFF700F952465B4609
:1017A000FFF70BF800224B46FEF795FFFFF709F90C
:1017B0003749086046E0DDE901210B46DDE9070114
:1017C00004F0B0FD00224B46FEF785FF52465B4613
:1017D000FEF7F3FFFFF7F5F8DDE9012180460B4640
:1017E000DDE9090104F09EFD00224B46FEF773FF80
:1017F00052465B46FEF7E1FFFFF7E3F80646DFF8E7
:1018000094A0DDE905014FF066394A465346FEF7DC
:10181000D4FFFFF7D6F801464046FFF735FD80F0CC
:1018200000403860DDE903014A465346FEF7C5FF34
:10183000FFF7C7F801463046FFF748FD80F000414A
:10184000134801600D48396801600E4805600F4873
:10185000046086E7540000202C000020C400002013
:101860008FC2F5285C1F9A40665E8D400000002004
:10187000F1D4C853FB2109400080664028000020B5
:10188000CC00002030000020D200002058000020B2
:10189000C0000020666630402DE9F35FFFF721F8B5
:1018A0002A4D00222B46FEF716FF6FF00106324646
:1018B000FEF7F2FF264F00223B46FEF77EFFDFF8E1
:1018C00094B000225B46FEF778FFFFF77AF8FFF747
:1018D00065F8DFF88480DFF8849042464B46FEF7D7
:1018E000FAFE00221E4BFEF7F6FEDFF878A000227B
:1018F0005346FEF762FFFFF764F81B4C60600198E7
:10190000FEF7EFFF00222B46FEF7E5FE3246FEF71C
:10191000C3FF00223B46FEF750FF00225B46FEF766
:101920004CFFFFF74EF8FFF739F842464B46FEF7FB
:10193000D2FE00220A4BFEF7CEFE00225346FEF7EF
:101940003CFFFFF73EF8A060BDE8FC9F0000694047
:1019500000003E4000002640F1D4C853FB2109405E
:1019600000C0504000002440B0000020F8B5002521
:101970000446009590F8240001280BD0012084F83B
:1019800024002046FFF7C2FB2046FFF7EBFB0600D2
:1019900002D050E00220F8BDA06A20F4885040F048
:1019A0000200A062022000F04DFD25490968B1FB4C
:1019B000F0F0400000E0401E00900028FBD12068BD
:1019C000816841F00801816000F08EFB074608E065
:1019D00000F08AFBC01B0A2803D920688068000732
:1019E00015D4206880680007F2D42068816841F02F
:1019F0000401816000F078FB074612E000F074FB00
:101A0000C01B0A280DD920688068400709D5A06A44
:101A100020F0020040F01000A06284F82450012061
:101A2000F8BD206880684007E8D4A06A20F0020072
:101A300040F00100A06284F824503046F8BD000058
:101A400074000020F8B50024009490F82420254666
:101A5000012A12D0012280F824204A681F23072A75
:101A60000DD20668776B521E02EB820293409F43B1
:101A70000B6893401F43776319E00220F8BD0668A6
:101A80000D2A0AD2376BD21F02EB820293409F438A
:101A90000B6893401F43376309E0F76A0D3A02EB86
:101AA000820293409F430B6893401F43F7620A688A
:101AB000072306680A2A0AD3F7680A3A02EB4202A9
:101AC00093409F438B6893401F43F76008E037695A
:101AD00002EB420293409F438B6893401F43376160
:101AE0000A68102A01D0112A20D1124B02689A42AA
:101AF00017D193681B0219D4936843F400039360D1
:101B00000968102912D10C490C4A0968B1FBF2F19D
:101B100001EB8101490000E0491E00910029FBD141
:101B200004E0816A41F020018162012480F82450A0
:101B30002046F8BD002401407400002040420F0000
:101B40002DE9F04104004FF000057FD0A06A002687
:101B500028B9E66284F82460204600F081F8204627
:101B6000FFF7D4FAA16AC90600D420B1A06A40F0F8
:101B70001000A0626AE0A16A21F4885141F00201DC
:101B8000A162334923688B42E16904D1B1F5402F4A
:101B900001D14FF40021277B4FF4807C41EA4702BA
:101BA00061680A43A168614508D0012906D0002177
:101BB00094F814E0BEF1010F02D00AE06146F7E7A5
:101BC000C7B1A76A47F02007A762E76A47F0010795
:101BD000E7625F6827F469470F435F60236899688D
:101BE0001C4F394011439960A16861450BD0012910
:101BF00009D00CE0DFF860E0A7690EEB47370F4330
:101C000047F40061E5E7218A0D05A5F580152168F7
:101C1000CB6A23F470032B43CB62216889680F4B96
:101C20001940914208D1E662A16A21F0020141F017
:101C30000101A162BDE8F081A06A20F0020040F03D
:101C40001000A062E06A40F00100E0620120F1E7CC
:101C5000003C0140FDF7E1FF00E0FFFFFE0E1FFF2B
:101C600000B585B0002100910191029103910068B7
:101C70000E49884218D10E48816941F40071816192
:101C8000816901F400710491816941F0040181616D
:101C90008069694600F00400049020200090032031
:101CA0000190044800F01AF905B000BD002401407D
:101CB000001002400008014010B590F821100022E9
:101CC000022905D00421816380F82020012010BD65
:101CD00001680B6823F00E030B6001680B6823F0AA
:101CE00001030B6090F84030C46B012101FA03F34B
:101CF000636080F8211080F82020104610BD00009D
:101D00002DE9F05F90F821100024022903D004216E
:101D10008163012485E001680A6822F00E020A60EE
:101D200001680A6822F001020A603F4E3E4FB21578
:101D3000DFF8F4C0DFF8F090DFF8ECA0DFF8E8B0EF
:101D4000DFF8E4E00168783F13011502ACF1640CA0
:101D5000A9F15009AAF13C0AABF1280BAEF1140E1F
:101D60004FF48018B14227D9B9420ED0614512D044
:101D700049451DD0514518D0594518D0714501D15C
:101D8000424615E0294EB14201D1012210E0274E12
:101D90001436B14201D110220AE0244E2836B14255
:101DA00006D0224A3C32914201D11A4600E02A462E
:101DB0001E49091F0A602BE0B94213D0614517D0B4
:101DC000494522D051451DD059451DD0714501D1FD
:101DD00042461AE0B14202D14FF0807215E0134E34
:101DE000B14201D1012210E0104E1436B14201D1AE
:101DF00010220AE00D4E2836B14206D00B4A3C3282
:101E0000914201D11A4600E02A46074980394A60CA
:101E1000012180F82110002180F82010416B01B1D0
:101E200088472046BDE8F09F800002400804024039
:101E300070B5B0F5805F40D1204C2078FFF78AFB69
:101E4000002003F0F1F8E063012003F0EDF84142D7
:101E50002164E06BFFF720FDD4E90A01FFF7C0F928
:101E60006064D4E90F0103F089FDA064206B03F0E6
:101E7000D3FBE064D4E911120A441118101AC4E922
:101E80000D10084602F0ECFF6063A06B02F0E8FF63
:101E90000B4DA0636E422A463146606B02F0E9FFAB
:101EA00060632A463146A06B02F0E3FF0146A0635F
:101EB000606BBDE8704003F0B5B970BD0000002054
:101EC000D8F5FFFF044910B50A68024202D0086045
:101ED000FFF7AEFF10BD0000140401402DE9F84FDC
:101EE000DFF8C8910024A9F1040B23460F2709F15C
:101EF000040AABF1040ED1E00125A54006EA050273
:101F0000AA4276D1DFF8A8C14E68A6EB0C08664558
:101F10002BD00DDC032E34D005DC36B3012E19D0C6
:101F2000022E2FD11BE0112E16D0122E2AD119E02D
:101F3000B8F5881F19D006DCB8F5803F15D0B8F584
:101F4000801F1FD111E0B8F5001F0ED0B8F5041F97
:101F500018D10AE0CB6815E0CB681B1D12E0CB68F6
:101F600008330FE0CB680C330CE08B682BB1012BEE
:101F70004FF0080303D0456104E0042302E005614B
:101F800000E00023FF2A01D8064601E000F1040624
:101F90004FEA840501D9A5F12005D6F8008007FA9B
:101FA00005FC28EA0C0803FA05F548EA0508C6F816
:101FB00000804D68ED0070D53E4DAE6946F00106DB
:101FC000AE61AD6924F0030605F0010500953A4DB8
:101FD00006EB050CDCF80850A607360F07FA06F8E2
:101FE00025EA0805DFF8D480404503D14FF000080A
:101FF00025E052E0DFF8C880404502D14FF00108EB
:102000001DE0DFF8C080404502D14FF0020816E025
:10201000DFF8B480404502D14FF003080FE0DFF84D
:10202000AC80404502D14FF0040808E0DFF8A08002
:10203000404502D14FF0050801E04FF0060808FACC
:1020400006F848EA0508CCF808804D68D9F8006021
:10205000ED024D4601D5164300E096432E604D68D3
:10206000DAF80060AD02554601D5164300E096430C
:102070002E604D68DBF80060AD035D4601D5164368
:1020800000E096432E604D68DEF80060ED03754673
:1020900001D5164300E096432E60641C0A6816467C
:1020A000E2407FF429AFBDE8F88F0000080401404A
:1020B0000000111000100240000001400008014023
:1020C000000C0140001001400014014000180140C4
:1020D000001C01408068084000D0012070470AB110
:1020E000016170470904FBE7014880687047000000
:1020F0006800002070B5040025D094F83D0000254C
:1021000020B984F83C50204600F0B8F8242084F828
:102110003D002068016821F001010160206801682C
:1021200041F4004101602068016821F40041016030
:1021300000F0F0FA4D4A6168914201D84C4900E044
:102140004C49884201D2012070BD4B492368B0FB45
:10215000F1F15E6826F03F060E435E6063689342CD
:1021600006D94FF4967359434FF47A73B1FBF3F1E8
:102170002368491C1E6A26F03F06314319626168D4
:10218000914210D84900401EB0FBF1F2521CC2F33C
:102190000B02042A01D2042022E0B0FBF1F0401C23
:1021A000C0F30B001CE0A268F2B301EBC10303EB28
:1021B0000116431EB3FBF6F35B1C43F480431B057F
:1021C00049D092B301EBC10202EB0111401EB0FBFA
:1021D000F1F0401CC0F30B0040F4804040F400409C
:1021E0002168CA694CF6FF739A431043C861D4E969
:1021F000071001432068026822F0C0021143016009
:10220000D4E9030101432068826848F2FF339A430E
:1022100011438160D4E9050108432168CA6822F0AE
:10222000FF021043C86001E00EE016E0206801687C
:1022300041F0010101602564202084F83D00256300
:1022400084F83E50002070BD01EB4106431EB3FBF5
:10225000F6F35B1CB3E70120C2E701EB4101401E2E
:10226000B0FBF1F0401CC0F30B00B7E7A086010003
:1022700080841E0000093D0040420F0010B586B06A
:102280000021009101910291039100681349884255
:1022900022D1134CA06940F00800A061A0696946F2
:1022A00000F0080004904FF440700090122001905C
:1022B000032003900B48FFF711FE0B48416841F0E3
:1022C000E06141F002014160E06940F40010E0612A
:1022D000E06900F40010049006B010BD0054004006
:1022E00000100240000C01400000014002488168DB
:1022F000027811448160704768000020074810B5DB
:10230000016841F010010160032000F089F800200D
:1023100000F006F800F024F8002010BD0020024074
:1023200070B50D4D04464FF47A712878B1FBF0F08A
:102330000A490968B1FBF0F000F0C2FB48B9102C63
:1023400007D200222146501E00F04AF800206C609F
:1023500070BD012070BD00006800002074000020E6
:102360000E4808B5816941F001018161816901F080
:1023700001010091C16941F08051C161C06900F063
:1023800080500090052000F04BF80548416821F08E
:10239000E06141F08061416008BD00000010024032
:1023A0000000014000280DDB00F01F0201219140D8
:1023B0004009800000F1E020C0F88011BFF34F8F8A
:1023C000BFF36F8F7047002809DB00F01F02012167
:1023D00091404009800000F1E020C0F800117047F2
:1023E000F0B40E4B1B680C46C3F30223C3F1070580
:1023F000042D00D90425191D072901D2002300E06E
:10240000DB1E012606FA05F1491E214099409E4037
:10241000761E16403143F0BC03F08CBB0CED00E09F
:10242000064900F0070208684FF6FF03184040EA2B
:102430000220034A10430860704700000CED00E0E2
:102440000000FA0510B501460020284C04292FD0C1
:102450000BDC012930D0022929D100F06BF9616829
:10246000C1F38131491C49001FE0082920D01029FF
:102470001DD161682268D20119D51D48C1F383427C
:10248000C903805C0AD56168194AC1F34041921EB4
:10249000515C184AB2FBF1F1484301E01649484348
:1024A0006168490203D440000321B0FBF1F010BD84
:1024B000BDE8104000F04EB9226AC2F301210129A3
:1024C00003D1920701D5C80310BD022905D1626A64
:1024D000920702D549F6404010BD0329FCD121687E
:1024E0008903F9D54FF2244010BD000000100240CE
:1024F000EA88000800127A0000093D002DE9F8433F
:1025000005460078354CC00754D0E0690026C0006D
:1025100008D4E06940F08050E061E069012600F0F5
:10252000805000902E480168C90512D40168804689
:1025300041F480710160FFF7D7FD074605E000BF59
:10254000FFF7D2FDC01B642823D8D8F80000C005CF
:10255000F6D5206A10F4407021D0A98801F44071AA
:1025600081421CD0206A1F49012220F440700A6079
:1025700000220A602062C00711D0FFF7B5FD0746B0
:1025800041F2883808E000BFFFF7AEFDC11B4145AE
:1025900002D90320BDE8F883206A8007F4D5206AB9
:1025A000696820F44070084320621EB1E06920F0A1
:1025B0008050E0612878800705D56068A96820F41C
:1025C0004040084360602878C00605D560686969A6
:1025D00020F48000084360600020DBE70010024028
:1025E00000700040400442422DE9F0470F460500CC
:1025F00061D0434E306800F00700B84209D230681D
:1026000020F0070038433060306800F00700B8421F
:1026100051D128683B4C810712D5400703D560682B
:1026200040F4E06060602878000703D5606840F4FB
:10263000605060606068A96820F0F0000843606046
:102640002878C00728D06868012810D0216802289F
:1026500010D0890700292EDA616821F003010143B7
:102660006160FFF741FD804641F288390DE0216845
:102670008903EFE78901EDE7FFF736FDA0EB0801DD
:10268000494502D90320BDE8F0876068696800F019
:102690000C00B0EB810FEFD1306800F00700B842BA
:1026A0000BD9306820F0070038433060306800F004
:1026B0000700B84201D00120E5E72878400705D59A
:1026C0006068E96820F4E0600843606028780007EB
:1026D00006D56068296920F4605040EAC100606056
:1026E00000F038F86168084AC1F30311515CC84032
:1026F0000649086006480068FFF712FE0020C2E79E
:102700000020024000100240FA88000874000020F7
:102710006C0000200448054900684968044AC1F378
:102720000221515CC8407047740000200010024034
:102730000A8900080448054900684968044AC1F349
:10274000C221515CC8407047740000200010024054
:102750000A8900080E4A51680E4801F00C03042B48
:1027600011D0082B0FD10C48C1F38343C903C05CBF
:102770000AD55168084AC1F34041921E515C054A8E
:102780005043B0FBF1F070470449484370470000E4
:102790000010024000127A00D888000800093D00AD
:1027A0002DE9F84F040070D02078C04DC00749D003
:1027B0006868C0F38100012807D06868C0F3810011
:1027C000022809D16868C00306D52868800339D576
:1027D00060680028E7D035E06068B0F5803F0BD036
:1027E00010B1B0F5A02F11D0286820F480302860F7
:1027F000286820F4802002E0286840F480302860B7
:10280000606890B1FFF770FC06460AE0286840F463
:1028100080202860F0E700BFFFF766FC801B64287B
:1028200073D828688003F7D50CE0FFF75DFC0646F7
:1028300005E000BFFFF758FC801B6428F0D828682B
:102840008003F7D420789A4E80074FF001094FF0AB
:10285000000839D5686810F00C0F07D06868C0F31D
:102860008100022809D16868C00306D4286880075F
:1028700014D52069012808D110E02069B0B1C6F84C
:102880000090FFF731FC074605E00AE1FFF72CFC5A
:10289000C01B0228C4D828688007F7D5286861695A
:1028A00020F0F80040EAC10028600DE0C6F8008082
:1028B000FFF71AFC074604E0FFF716FCC01B0228CE
:1028C00023D828688007F7D4207800072CD57948CA
:1028D000A169D9B1C0F80090FFF706FC074604E0F3
:1028E000FFF702FCC01B02280FD8686A8007F7D5E3
:1028F00071484FF4FA510068B0FBF1F0009000BF4E
:102900000098411E0091FAD20EE080E0C0F80080ED
:10291000FFF7EAFB074604E0FFF7E6FBC01B0228CF
:1029200075D8686A8007F7D42078400760D5E869D1
:102930000027C00008D4E86940F08050E861E869E9
:10294000012700F0805000905C480168C90513D44D
:102950000168834641F480710160FFF7C5FB824640
:1029600006E000BFFFF7C0FBA0EB0A0064284ED8CA
:10297000DBF80000C005F5D5E06801280AD008B1F1
:10298000052813D0286A20F001002862286A20F068
:10299000040002E0286A40F001002862E06841F289
:1029A000883B98B1FFF7A0FB82460BE0286A40F015
:1029B00004002862EEE700BFFFF796FBA0EB0A01D8
:1029C00059455AD8286A8007F6D50CE0FFF78CFBEA
:1029D000824605E0FFF788FBA0EB0A0159454CD879
:1029E000286A8007F6D41FB1E86920F08050E861BA
:1029F000E06988B36968C1F38101022944D00228E3
:102A0000C6F8608004D0FFF76FFB044638E034E07E
:102A1000FFF76AFB074604E0FFF766FBC01B0228CE
:102A20002BD828688001F7D4206AB0F5803F05D103
:102A30006868A16820F4003008436860D4E90801A0
:102A40000843696821F4741108436860C6F860900F
:102A5000FFF74AFB044606E025E000BFFFF744FB12
:102A6000001B022809D828688001F7D51BE000BFA9
:102A7000FFF73AFB001B022802D90320BDE8F88FBC
:102A800028688001F4D40EE00128F7D06868226A33
:102A900000F48031914204D1616A00F470108842E0
:102AA00001D00120EAE70020E8E700000010024022
:102AB0000000424280044242740000200070004046
:102AC00010B5401EB0F1807F01D3012010BD4FF042
:102AD000E02460610F21601703F02CF80020A06152
:102AE00007202061002010BD7047704710B590F896
:102AF0003C20012A22D0012280F83C20CA688C6840
:102B000022F4407222434C6822F4806222430C6813
:102B100022F4006222430C6922F4805222434C6961
:102B200022F400522243C969002322F480420A435E
:102B300001684A6480F83C30002010BD022010BDBE
:102B400070B590F83C20012A2CD0012480F83C403C
:102B5000022280F83D2003685A689D6822F07006C2
:102B60000A6832435A60104B02689A420ED00F4BEB
:102B70009A420BD0B2F1804F08D00D4B9A4205D04B
:102B80000C4B9A4202D00C4B9A4204D1496825F072
:102B900080031943916080F83D40002180F83C108B
:102BA000084670BD022070BD002C01400034014079
:102BB0000004004000080040000C004010B5040074
:102BC00003D094F83D0010B107E0012010BD0020B3
:102BD00084F83C00204600F01FF8022084F83D00F5
:102BE000211D206802F094FB012084F8460084F83F
:102BF0003E0084F83F0084F8400084F8410084F8E7
:102C0000420084F8430084F8440084F8450084F8C6
:102C10003D00002010BD000000B585B000210091EE
:102C200001910291039101681948B1F1804F0CD0D4
:102C3000184A914207D1816941F40051816180694C
:102C400000F40050049005B000BDC16941F00101DD
:102C5000C161C16901F001010491816941F0040180
:102C600081618069694600F00400049001200090B1
:102C70000220019003900848FFF730F90222032157
:102C80001C20FFF7ADFB1C20FFF79DFBDBE70000DE
:102C900000100240003401400008014090F83D104F
:102CA000012901D001207047022180F83D10016800
:102CB000CA6842F00102CA6000680E4988420ED01C
:102CC0000D4988420BD0B0F1804F08D00B498842A3
:102CD00005D00B49884202D00A49884204D1816854
:102CE00001F00701062903D0016841F001010160EC
:102CF00000207047002C01400034014000040040D7
:102D000000080040000C004070B5044690F83C00FC
:102D10000025012817D0012684F83C60022084F8A1
:102D20003D002068826822F0770222F47F428260B0
:102D30000868502838D00DDC20284FD005DC90B32F
:102D4000102811D14AE0022070BD302846D040281A
:102D50000AD13BE060282FD070280DD0B0F5805FFD
:102D600003D0B0F5005F12D0012584F83D6000204B
:102D700084F83C00284670BDCB68D1E90121206869
:102D800002F021FB2068816841F0770109E0CB68FF
:102D9000D1E90121206802F016FB2068816841F426
:102DA00080418160E1E719E0CA684968206802F063
:102DB000DFFB5021206806E0CA684968206802F0FD
:102DC000E8FB6021206802F008FBCEE7CA6849688A
:102DD000206802F0CDFB40212068F4E7226801461C
:102DE0001046F0E72DE9F0410D46040003D094F8B9
:102DF0003D0018B108E00120BDE8F081002084F812
:102E00003C00204600F040F8022084F83D00206895
:102E1000816844F2070291438160211D206802F01D
:102E200077FA226890689169166A2B68AF69034344
:102E300040F20330814341EA0721A868EF69084363
:102E40004FF6FC418843E96840EA072001432869BE
:102E50002F6A000140EA0730084369686D6926F06F
:102E6000220646EA0515294393602268906154F8CA
:102E7000460B0162012004F81F09E0752076E07618
:102E80002077A0750020B7E700B585B0002100913C
:102E90000191029103911A4B02681A48C0219A428B
:102EA00013D1C26942F00202C261C26902F0020299
:102EB0000492826942F0040282618069009100F00C
:102EC000040004906946104815E0104B9A4214D152
:102ED000C26942F00402C261C26902F004020492B3
:102EE000826942F0080282618069009100F0080066
:102EF000049069460648FEF7F1FF05B000BD0000EA
:102F0000000400400010024000080140000800409A
:102F1000000C014070B590F83E60044690F83F50B8
:102F200090F8423090F84320022021B104290ED0BD
:102F3000012E1BD114E0012E18D1012B16D184F8DB
:102F40003E0084F8420001220021206820E0012D8B
:102F50000CD1012A0AD184F83F0084F8430014E020
:102F6000012D03D1012B01D1012A01D0012070BD17
:102F700084F83E0084F83F0084F8420084F843005F
:102F800001220021206802F011FA012204212068A8
:102F900002F00CFA2068016841F001010160002094
:102FA00070BD70472DE9F04104460068C6680569A8
:102FB0004FF00007A90713D5B10711D5F91E01611C
:102FC00001202077206880698007204602D0FFF723
:102FD000E8FF04E000F0A4F8204600F036F9277777
:102FE000680716D5700714D521686FF004000861D2
:102FF000022020772068806910F4407F204602D0AC
:10300000FFF7CFFF04E000F08BF8204600F01DF939
:103010002777280715D5300713D521686FF00800EA
:103020000861042020772068C0698007204602D00C
:10303000FFF7B7FF04E000F073F8204600F005F951
:103040002777E80616D5F00614D521686FF0100032
:103050000861082020772068C06910F4407F20466E
:1030600002D0FFF79EFF04E000F05AF8204600F07F
:10307000ECF82777E80708D0F00706D021686FF052
:1030800001000861204600F03BF9280608D530060B
:1030900006D521686FF0800008612046FFF724FD07
:1030A000680608D5700606D521686FF040000861F3
:1030B000204600F079F9A8060AD5B00608D521689F
:1030C0006FF0200008612046BDE8F041FFF70DBD1C
:1030D000BDE8F08100B585B0002100910191029119
:1030E000039100680B49884212D10B48816941F075
:1030F000100181618069694600F0100004904FF46E
:10310000707000900220019003900448FEF7E6FEE4
:1031100005B000BD00340140001002400010014025
:10312000704770B5044690F83C0000260D46012813
:103130000FD0012084F83C006AB1042A1DD0082A6F
:103140002FD00C2A3FD00126002084F83C003046C6
:1031500070BD022070BD206802F048F920688169C6
:1031600041F0080181612068816921F004018161D9
:10317000206881692A69114311E0206802F066F92C
:103180002068816941F4006181612068816921F4CE
:1031900080618161206881692A6941EA0221816137
:1031A000D2E7206802F088F92068C16941F008017F
:1031B000C1612068C16921F00401C1612068C16951
:1031C0002A69114311E0206802F0AAF92068C16958
:1031D00041F40061C1612068C16921F48061C1616D
:1031E0002068C1692A6941EA0221C161ACE710B5D2
:1031F000040003D094F83D0010B107E0012010BD99
:10320000002084F83C00204600F01EF8022084F8DC
:103210003D00211D206802F07BF8012084F8460063
:1032200084F83E0084F83F0084F8400084F84100B0
:1032300084F8420084F8430084F8440084F8450090
:1032400084F83D00002010BD7047704710B504465B
:10325000022249B104290ED0082913D094F8410064
:10326000012816D0012010BD94F83E000128F9D1A4
:1032700084F83E200FE094F83F000128F2D184F852
:103280003F2008E094F840000128EBD184F840206A
:1032900001E084F841200122206802F087F81349F8
:1032A0002068134A884201D0904203D1436C43F412
:1032B00000434364206888420DD090420BD0B0F1A7
:1032C000804F08D00B49884205D00B49884202D074
:1032D0000A49884204D1816801F00701062903D018
:1032E000016841F001010160002010BD002C014087
:1032F000003401400004004000080040000C004081
:1033000070B50068B0F1804F44D1234C606A401C16
:10331000606294F90200002802DB0A38A07005E020
:1033200000224FF400611D48FEF7D9FE1C481D49DC
:1033300062684AB1012A2DD10268A369D51A052D08
:1033400019DD521F026017E00268A369D51A052D26
:1033500002DD521F026000E003600868E269831A20
:10336000052B02DD401F086000E00A60BDE87040E8
:103370000A2005F057B903600868E269831A052B33
:1033800002DD401F086000E00A60BDE870400A20CE
:1033900004F032B870BD00000000002000080140B9
:1033A0000401002008010020704718B5034690F87A
:1033B0004200202801D0022018BD61B15AB101207D
:1033C000186300205863184602F076FA0028F3D1FB
:1033D000196B012901D0012018BD19680A684968D4
:1033E000009119680C3151E8002F42F0100241E8B9
:1033F0000024002CF5D118BD2DE9F0470D460646F6
:1034000000688B49DFF82CA28B4C00274FF4006931
:1034100088426ED189482A460346475588A14038DC
:1034200002F060FB85484038FCF703FF834982B215
:103430007B1E4039884800F072FC6078002858D024
:1034400086A17E48FCF7E3FEDFF8188238B101223E
:1034500008214046FEF743FE83A002F033FB8BA118
:103460007648FCF7D4FE38B1002208214046FEF72A
:1034700036FE88A002F026FB8FA17048FCF7C7FE3D
:1034800038B1012249465046FEF729FE8CA002F0D1
:1034900019FB95A16948FCF7BAFE38B100224946EC
:1034A0005046FEF71CFE93A002F00CFB9BA1634864
:1034B000FCF7ADFEE06060B15F4A9AA11032FCF704
:1034C000CDFED4E9040104F00BFA98A0216902F0C2
:1034D000F9FA9FA15948FCF79AFEE06070B1564A8C
:1034E0009DA11432FCF7BAFED4E9040104F0F8F906
:1034F00000E05FE09BA0616902F0E4FAA2A14F48FE
:10350000FCF785FEE06050B14B4BA1A11C331A1FA4
:10351000FCF7A4FED4E90612A0A002F0D3FAABA1F6
:103520004648FCF774FEE060002831D0424AAAA168
:10353000121DFCF793FE606880B1AAA1ABA002F057
:10354000C1FAD4F804C0B348B349B44AB44BBCF18F
:10355000000F05D0BCF1010F0CD019E0B1A1EDE7CF
:1035600000680968401AB149086010681968401A73
:10357000AF490CE000680968401AAE490860AE49DE
:10358000086010681968401AAC490860AC490860C6
:10359000ACA12A48FCF73BFEE06058B1264AACA13A
:1035A0000832FCF75BFEA06800283ED0ACA1AEA0BC
:1035B00002F088FAB7493068884217D11F48294677
:1035C000403002464755B4A002F07CFA1B48BAA12D
:1035D0004030FCF71CFE48B1012249465046FEF738
:1035E0007EFD6420A070B6A002F06CFAB849306885
:1035F000884207D111482946803002464755B5A078
:1036000002F060FA40220D491348FFF7CEFE0B4945
:1036100040224031B748FFF7C8FEBDE8F0470749F0
:1036200040228031B448FFF7C0BEB4A1BFE700001C
:10363000003801400008014000000020580300202D
:10364000CAD5B5BD5B25645DD7D6BDDACAFDBEDD82
:10365000A3BA25730D0A0000040600204C45445F00
:103660004F4E0000000C0140B3C9B9A6D6B4D0D06B
:10367000C3FCC1EE5B4C45445F4F4E5D202D204C9A
:103680004544B5E3C1C10D0A000000004C45445F4C
:103690004F464600B3C9B9A6D6B4D0D0C3FCC1EEDC
:1036A0005B4C45445F4F46465D202D204C4544CF42
:1036B000A8C3F00D0A000000424545505F4F4E0080
:1036C000B3C9B9A6D6B4D0D0C3FCC1EE5B42454560
:1036D000505F4F4E5D202D20B7E4C3F9C6F7BFAA57
:1036E000C6F40D0A00000000424545505F4F4646B3
:1036F00000000000B3C9B9A6D6B4D0D0C3FCC1EE57
:103700005B424545505F4F46465D202D20B7E4C3E0
:10371000F9C6F7B9D8B1D50D0A0000006C6566741A
:103720003D0000006C6566743D256400B3C9B9A610
:10373000D6B4D0D0C3FCC1EE5B6C6566745D202D41
:1037400020D7F3CBD9B6C8A3BA25640D0A00000070
:1037500072696768743D000072696768743D25642A
:1037600000000000B3C9B9A6D6B4D0D0C3FCC1EEE6
:103770005B72696768745D202D20D3D2CBD9B6C83F
:10378000A3BA25640D0A000073706565643D0000EE
:1037900073706565643D25642C256400B3C9B9A6C2
:1037A000D6B4D0D0C3FCC1EE5B73706565645D2098
:1037B0002D20D7F3CBD9B6C8A3BA2564A3ACD3D2F6
:1037C000CBD9B6C825640D0A0000000070696420DA
:1037D0006D6F64653D000000706964206D6F646505
:1037E0003D256400D4F6C1BFCABD0000B3C9B9A667
:1037F000D6B4D0D0C3FCC1EE5B706964206D6F6439
:10380000655D202D20706964C4A3CABDA3BA257369
:103810000D0A00000401002014010020080100200E
:1038200020010020CEBBD6C3CABD00001801002075
:10383000240100202C010020300100203401002050
:103840003801002067726F7620636865636B3D0006
:1038500067726F7620636865636B3D2564000000C6
:10386000BFAAC6F400000000B3C9B9A6D6B4D0D030
:10387000C3FCC1EE5B706964206D6F64655D202DD3
:1038800020CDD3C2DDD2C7BCECB2E2A3BA25730D02
:103890000A000000004400405B5553415254325D21
:1038A000CAD5B5BD5B25645DD7D6BDDACAFDBEDD20
:1038B000A3BA25730D0A0000706572736F6E000065
:1038C000D3D0C8CBA3A1D3D0C8CBA3A10D0A0000ED
:1038D000005000405B5553415254355DCAD5B5BDCB
:1038E0005B25645DD7D6BDDACAFDBEDDA3BA2573FC
:1038F0000D0A00004C060020BC050020B9D8B1D547
:103900000000000070470000F8B501680446086830
:10391000CA684B6910F00F0F4FF0000559D003F043
:10392000010602F49077374365D0C10705D0D10571
:1039300003D5616C41F001016164410705D5D907E8
:1039400003D0616C41F002016164810705D5D9079C
:1039500003D0616C41F004016164010707D502F0F6
:103960002001314303D0616C41F008016164616C56
:1039700000293AD0800604D5900602D5204601F0F1
:10398000DEFE20684069616CC0F38010090700D436
:1039900060B3204601F0ACFE20684069400621D5A6
:1039A0002068143050E8001F21F0400140E8001268
:1039B000002AF5D1E06BA8B16D494163E06BFEF7D9
:1039C0009FF9002811D0E06B416B01B0BDE8F040D9
:1039D000084783060FD593060DD52046BDE8F8406D
:1039E00001F0ADBE2046FFF78DFFF8BD2046FFF782
:1039F00089FF6564F8BD266B2023012E7CD1C606A5
:103A00007AD5D60678D508684868009048694FF09E
:103A10000206400640D5E16B086840680004000CCF
:103A2000E8D0A28D8242E5D9E085886920282DD092
:103A300020680C3050E8001F21F4807140E800122B
:103A4000002AF5D12068143050E8001F21F0010150
:103A500040E80012002AF5D12068143050E8001F19
:103A600021F0400140E80012002AF5D184F84230EC
:103A7000256320680C3050E8001F21F0100140E859
:103A80000012002AF5D1E06BFEF716F96663A08DEF
:103A9000E18D401A81B22AE0A08DE18D401A81B2F9
:103AA000E08D0028A6D00029A4D022680C3252E86C
:103AB000000F20F4907042E80007002FF5D1206835
:103AC000143050E8002F22F0010240E80027002FB8
:103AD000F5D184F84230256320680C3050E8002F7F
:103AE00022F0100240E80023002BF5D16663204647
:103AF000FFF782FCF8BDFFE705062BD5150629D593
:103B000094F841002128F5D1A068B0F5805F01D17B
:103B10002069B0B1206A411C2162216800784860A8
:103B2000E08C401E0004000CE084E3D12068C168F2
:103B300021F08001C1602068C16841F04001C1608E
:103B4000D8E7206A0088C0F308004860206A801C1B
:103B50002062E5E74006CDD55006CBD5CA682046A1
:103B600022F04002CA6084F8413000F028F9C1E731
:103B7000E156000870B5040004D094F84100002517
:103B800010B106E0012070BD84F84050204600F0DE
:103B900023F8242084F841002068C16821F40051F2
:103BA000C160204601F02CFE2068016921F490419B
:103BB00001612068416921F02A0141612068C168E2
:103BC00041F40051C1606564202084F8410084F80C
:103BD00042006563002070BDF0B585B000240094FC
:103BE000019402940394464D03684649022003223F
:103BF0000426AB422DD1CB6943F48013CB61CB6952
:103C000003F4801304938B6943F010038B618B6979
:103C100003F0100304938B6943F020038B618969DF
:103C2000039201F020010491C102CDE90010694620
:103C30003548FEF753F9CDE90064694633480294EC
:103C4000FEF74CF9012200213520FEF7C9FB352093
:103C500029E02F4F2F4DBB4229D18B6943F480437C
:103C60008B618B6903F4804304938B6943F00403F5
:103C70008B618969039201F0040104916915CDE912
:103C8000001069462846FEF729F92815CDE90004F9
:103C9000694628460294FEF721F9002201212520D9
:103CA000FEF79EFB2520FEF78EFB05B0F0BD1A4FF8
:103CB000BB42FAD1CB6943F40033CB61CB6903F447
:103CC000003304938B6943F004038B61896901F02D
:103CD0000401CDE90321CDE9006069462846FEF7DD
:103CE000FDF80820CDE90004694628460294FEF755
:103CF000F5F8022201212620FEF772FB2620D2E7EA
:103D0000005000400010024000100140001401402B
:103D100000380140000801400044004070472DE990
:103D2000F843044690F84100984616460D46202870
:103D300002D00220BDE8F88385B17EB10020606426
:103D4000212084F84100FEF7CFF9A6848146E6845D
:103D5000A0682027B0F5805F02D003E00120E9E7EA
:103D6000206910B12E4600250EE000260CE08021CF
:103D7000204601F0BCFDA8B9C6B116F8010B2168B8
:103D80004860E08C401EE084E08C4B464FF000021F
:103D9000CDF800800028EAD14FF04001204601F024
:103DA000A6FD40B184F841700320C3E735F8020B4B
:103DB000C0F30800E3E784F841700020BAE77047D9
:103DC000FEE770B50D46044600F0C0F8204600F04E
:103DD0008DF800F003F9284600F088F800F0FEF8AE
:103DE00000F0B4F8641CE0B200F080F800F0F6F8DF
:103DF000002000F045F8044600F0D0F8204670BDE1
:103E000070B50D4C0025C4F8AC510C48016821F484
:103E100070610160016841F440710160C4F8A8510B
:103E2000012004F5D47402F067FB0120606002F009
:103E300063FB656070BD000000802142040C0140FE
:103E400070B50D4C0025C4F8AC510C48016821F444
:103E500070610160016841F4407101600126C4F89D
:103E6000A861304604F5D47402F046FB6660012078
:103E700002F042FB656070BD00802142040C0140ED
:103E80002DE9F047814617480024016821F470614C
:103E90000160016841F400610160134E2546274628
:103EA0004FF00108C6F8AC71022002F025FBC6F8FD
:103EB000AC816006040ED6F8280108B1641CE4B297
:103EC000022002F019FB6D1CEDB2082DEAD3B9F106
:103ED000000F02D0FFF794FF01E0FFF7B1FF20468B
:103EE000BDE8F087040C0140008021422DE9F0413B
:103EF00006461448016821F470610160016841F4CC
:103F000040710160104C0027C4F8AC713D464FF081
:103F10000108F009C4F8A8017006060E012002F09D
:103F2000EBFAC4F8AC81012002F0E6FAC4F8AC71F7
:103F3000012002F0E1FA6D1CEDB2082DE9D3BDE8D5
:103F4000F0810000040C01400080214270B511484E
:103F5000016821F470610160016841F44071016001
:103F60000D4C0120C4F8A801D4F8281149B1C4F8B7
:103F7000AC0102F0C1FA0025C4F8A851D4F8280118
:103F800008B1002070BD012002F0B6FAC4F8AC51AF
:103F9000012070BD040C0140008021420D4810B585
:103FA000016821F470610160016841F440710160B1
:103FB000094C0020C4F8AC01C4F8A801012004F5A4
:103FC000D47402F099FA012060602060BDE81040CE
:103FD00002F092BA040C01400080214270B51348EF
:103FE0000024016821F470610160016841F40061FE
:103FF00001600F4D0126C5F8A861304602F07CFA39
:10400000C5F8AC6107E0641CE4B2322C03D9FFF7B9
:10401000C5FF002070BD012002F06EFAD5F828011E
:104020000028F0D1C5F8AC01012070BD040C01409E
:104030000080214210B51446FFF7C3FE2070012016
:1040400010BDF8B515461C460E4607466A46FFF7F2
:10405000F1FF01209DF80010A8400CB1084301E0D9
:1040600021EA0000C2B28DF800203146384600F047
:104070002BF8F8BD2DE9F84314461D460F4680463F
:104080006A46089EFFF7D6FF00281BD0611CFF2060
:10409000C4F1080200FA01F12A44521ED040014343
:1040A000C5F108008640F2B2C4F10700C2409DF895
:1040B0000000084010438DF80000C2B23946404667
:1040C00000F002F8BDE8F88307B502AB012200F06A
:1040D00001F80EBD2DE9F0411E46154688460746FB
:1040E0000024FFF733FF3846FFF700FFFFF776FFA6
:1040F0004046FFF7FBFEFFF771FF06E0305DFFF77C
:10410000F5FEFFF76BFF641CE4B2AC42F6D3FFF799
:1041100045FF0120BDE8F0812DE9F04F04469148AC
:10412000ABB011AFB0E86810299287E868106CC88E
:104130000DAF87E86C0050E91423CDE9272350E93F
:104140001223CDE9252350F8588900F15C031FAFF5
:1041500093E80C109346199350F8682B2A926CC878
:1041600087E86C0050E91820CDE923200020079053
:1041700008900490059006901B901C9009900A905E
:104180000B9003900C901D901E901A90E2460846EA
:10419000FCF704FC05460E4684F00040FCF7FEFBED
:1041A0002A46334602F0BEF8FCF70BFC6E4F159022
:1041B0000DAC0222CDE9004707AE0123114602965D
:1041C000104604F0D9F91BAA29A927A88DE80700F1
:1041D00001231A461946022004F0CEF91B990798CC
:1041E000FCF7FEF807F1080528601C990898FCF711
:1041F000F7F868600DF10C0905F12801009402231D
:10420000CDE901191A461946184604F0B5F909A96D
:104210001FAACDF80090CDE9012102231A461946C4
:10422000184604F0A9F941460998FCF7D9F84F4C13
:10423000594620600A98FCF7D3F8606019990B98EA
:10424000FCF7CEF8A06051460C98FCF7C9F8E06086
:104250000DF1940A0223CDE900A40DF1740B1A4666
:10426000CDF808B01946012004F086F90DF1680870
:1042700023A9CDF800B0CDE901180123022211468F
:10428000184604F079F92A991A98FCF7A9F801461A
:104290004FF07E50FCF72EF91A9023A8CDE900408C
:1042A0000222012311460296104604F065F905F139
:1042B000080B01238DE840091A461946022004F034
:1042C0005BF9CDF800A0CDE9015801230222114687
:1042D000184604F051F91A991598FCF7D3F81A907A
:1042E000CDF800B00123CDE901861A461946022017
:1042F00004F042F907992868FCF772F838600899C9
:104300006868FCF76DF87860CDF800B0CDE901A9D8
:10431000022301221146184604F02EF90399119840
:10432000FCF7B0F8039004991298FCF7ABF80490EE
:1043300005991398FCF7A6F8059006991498FCF7D0
:10434000A1F8069005F12800CDF800900223CDE9F0
:1043500001401A461946184604F00EF938682BB089
:10436000BDE8F08F009D00083C02002044090020B9
:104370002DE9F04F04469348ABB000F178030F46A7
:1043800093E8681011A9299281E8681000F1880566
:104390000DF134084ECD88E84E00D0E90812CDE981
:1043A0002712D0E90A12CDE92512B5E80E10884689
:1043B000CDF858C0416892469B462A912ECD1FAE3B
:1043C00086E82E00D0E90C10CDE9231000200790DC
:1043D00008900490059006901B901C9009900A90FC
:1043E0000B9003900C901D901E901A903846FCF78D
:1043F000D5FA06460D4684F00040FCF7CFFA324667
:104400002B4601F08FFFFCF7DCFA6F4F15900DACD7
:104410000222CDE9004707AE01231146029610465D
:1044200004F0AAF81BAA29A927A88DE807000123F0
:104430001A461946022004F09FF81B990798FBF7CB
:10444000CFFF07F1080528601C990898FBF7C8FF03
:1044500068600DF10C0905F1200000940223CDE9FC
:1044600001091A461946184604F086F809A91FAA38
:10447000CDF80090CDE9012102231A4619461846CD
:1044800004F07AF841460998FBF7AAFF4F4C5146D1
:1044900020600A98FBF7A4FF606059460B98FBF771
:1044A0009FFFA06016990C98FBF79AFFE0600DF152
:1044B000940A0223CDE900A40DF1740B1A46CDF83D
:1044C00008B01946012004F057F80DF1680823A937
:1044D000CDF800B0CDE9011801230222114618469B
:1044E00004F04AF82A991A98FBF77AFF01464FF030
:1044F0007E50FBF7FFFF1A9023A8CDE9004002226F
:10450000012311460296104604F036F805F1080B17
:1045100001238DE840091A461946022004F02CF8C0
:10452000CDF800A0CDE9015801230222114618461A
:1045300004F022F81A991598FBF7A4FF1A90CDF809
:1045400000B00123CDE901861A461946022004F085
:1045500013F807992868FBF743FF386008996868E3
:10456000FBF73EFF7860CDF800B0CDE901A902234A
:1045700001221146184603F0FFFF03991198FBF73B
:1045800081FF039004991298FBF77CFF0490059932
:104590001398FBF777FF059006991498FBF772FFC5
:1045A000069005F12001CDF800900223CDE90141EC
:1045B0001A461946184603F0DFFF38682BB0BDE8ED
:1045C000F08F0000C89C000854020020540900200D
:1045D0002820FDF7F8BE10B5022000F011F80320E6
:1045E00000F020F8002000F014F8002000F02FF870
:1045F000002000F026F8BDE81040002000F01BB8B5
:1046000008B50323009002226B21D020FFF732FD72
:1046100008BD08B50223009004221C21D020FFF71A
:1046200029FD08BD08B50223009004221B21D020DB
:10463000FFF720FD08BD034601223721D020FFF7F8
:1046400000BD034605226A21D020FFF7FABC0346CD
:1046500006226B21D020FFF7F4BC00003EB50021FC
:104660001148009101910F4A02910260816001732B
:10467000017501244FF460220461C2614160FDF7BD
:104680005FFA08B1FCF764FF0520CDE900040320C0
:10469000029069460448FDF7D5F9002801D0FCF7DF
:1046A00057FF3EBD00240140180400202DE9F043CF
:1046B00085B00024374800940194029403948169E2
:1046C00041F020018161816901F02001049181693B
:1046D00041F004018161816901F004010491816963
:1046E00041F008018161816901F00801049181694B
:1046F00041F0100181618069DFF89C8000F01000BA
:104700000490002241F608414046FDF7E8FCDFF83E
:104710008C904FF40067002239464846FDF7DFFCD5
:104720004FF440600125CDE900050320CDE90240AA
:1047300069464046FDF7D2FB41F208000226CDE96A
:104740000005CDE9024669464046FDF7C7FB280251
:104750008DE8310069464846FDF7C0FB0097039697
:10476000CDE9015469464846FDF7B8FB280300909F
:104770000B48CDE9010569464846FDF7AFFB00222D
:1047800011462820FDF72CFE2820FDF71CFE05B061
:10479000BDE8F08300100240000C01400008014019
:1047A000000011100D4810B50B4901600C49416023
:1047B00000210222C0E902125203C0E904218161F2
:1047C000C1610162FDF796FC002803D0BDE81040EE
:1047D000FCF7BEBE10BD000000540040480400209D
:1047E000801A060010B586B0002417480094019482
:1047F0000294039404944FF080410594016040F2C8
:10480000CF21C0E9011440F2E731C0E9031484610B
:10481000FEF7D4F908B1FCF79BFE4FF480500090EE
:1048200069460948FEF770FA08B1FCF791FE049456
:1048300004A905480594FEF783F9002801D0FCF788
:1048400087FE06B010BD00009C04002010B58CB09F
:1048500024216846FBF7D0FC00241648099414492B
:104860000A94C0E900144FF6FF71C0E902410461E7
:1048700084610320CDE900040120CDE90204049401
:10488000CDE90540079469460A480894FEF7AAFA5C
:1048900008B1FCF75DFE099409A906480A94FEF7E1
:1048A0004FF9002801D0FCF753FE0CB010BD0000FA
:1048B00000040040E404002010B58CB024216846B8
:1048C000FBF79AFC00241648099414490A94C0E99D
:1048D00000144FF6FF71C0E90241046184610320B6
:1048E000CDE900040120CDE902040494CDE905409E
:1048F000079469460A480894FEF774FA08B1FCF771
:1049000027FE099409A906480A94FEF719F9002818
:1049100001D0FCF71DFE0CB010BD000000080040E7
:104920002C05002010B596B000240F94109411941B
:10493000129413941C2168461494FBF75DFC20210B
:1049400007A8FBF759FC34483249C0E9001440F687
:104950003F31C0E9024180210461C0E90541FEF711
:104960002DF908B1FCF7F4FD4FF480500F900FA91A
:104970002948FEF7C9F908B1FCF7EAFD2648FEF719
:1049800036FC08B1FCF7E4FD139413A922481494F3
:10499000FEF7D6F808B1FCF7DBFD6020CDE9000496
:1049A0000294039404940594002269461A480694DC
:1049B000FEF7B7FB08B1FCF7CBFD042269461648A9
:1049C000FEF7AFFB08B1FCF7C3FD082269461248A9
:1049D000FEF7A7FB08B1FCF7BBFD0C2269460E48A9
:1049E000FEF79FFB08B1FCF7B3FD07940894099408
:1049F0004FF400500A94CDE90B4007A906480E94E5
:104A0000FEF774F808B1FCF7A3FD0348FEF762FB5C
:104A100016B010BD00340140740500200C4810B5DC
:104A20000A4901604FF416514160002181600C2257
:104A3000C160C0E904128161C161FFF79BF80028E1
:104A400003D0BDE81040FCF783BD10BD005000400E
:104A5000BC0500200C4810B50A4901604FF4E13153
:104A60004160002181600C22C160C0E904128161B3
:104A7000C161FFF77FF8002803D0BDE81040FCF7C4
:104A800067BD10BD00380140040600200C4810B579
:104A90000A4901604FF4E1314160002181600C223C
:104AA000C160C0E904128161C161FFF763F80028A9
:104AB00003D0BDE81040FCF74BBD10BD00440040E2
:104AC0004C060020FEE7FEE708B5491E022909D87A
:104AD00001EB810149060093090E13460A460021A5
:104AE00000F002F808BD00002DE9F0411546069CD3
:104AF0000E46074613B1002000F0F8FA294630466A
:104B000000F000FB01220649384600F051FB002C62
:104B100003D0BDE8F04100F05FBBBDE8F0810000CC
:104B2000E400002010B500F015F800F0CFF80123E4
:104B3000BDE810401A46194601A0FFF7C5BF0000A6
:104B40006F6C656420696E69742073756363657347
:104B5000732100000748816941F00801816106481E
:104B6000016821F0FF010160016841F0330101603B
:104B70007047000000100240040C01402DE9F04194
:104B800006461448016821F0F0010160016841F017
:104B900030010160104C0027C4F8A0713D464FF071
:104BA0000108F009C4F8A4017006060E0120FCF704
:104BB000C0FCC4F8A0810120FCF7BBFCC4F8A071C4
:104BC0000120FCF7B6FC6D1CEDB2082DE9D3BDE861
:104BD000F0810000040C01400080214270B51148B2
:104BE000016821F0F0010160016841F030010160CD
:104BF0000D4C0120C4F8A401D4F8241149B1C4F823
:104C0000A001FCF796FC0025C4F8A451D4F82401B7
:104C100008B1002070BD0220FCF78BFCC4F8A05145
:104C2000012070BD040C01400080214270B50F4886
:104C3000016821F0F0010160016841F0300101607C
:104C40000B4C0020C4F8A001C4F8A401022004F514
:104C5000D074FCF76EFC012525602846FCF769FC42
:104C60006560BDE870400220FCF763BC040C0140A5
:104C70000080214270B513480024016821F0F00142
:104C80000160016841F0800101600F4D0126C5F807
:104C9000A4613046FCF74DFCC5F8A06107E0641C38
:104CA000E4B2322C03D9FFF7C1FF002070BD012010
:104CB000FCF73FFCD5F824010028F0D1C5F8A0018D
:104CC000012070BD040C01400080214210B540F667
:104CD000C410401EFDD1AE2200213C2003F0EEFDA9
:104CE000A62200213C2003F0E9FDAE2200213C2059
:104CF00003F0E4FDD52200213C2003F0DFFD8022FB
:104D000000213C2003F0DAFDA82200213C2003F022
:104D1000D5FD1F2200213C2003F0D0FDD32200212D
:104D20003C2003F0CBFD002211463C2003F0C6FDE1
:104D3000402200213C2003F0C1FD8D2200213C20B7
:104D400003F0BCFD142200213C2003F0B7FD20221B
:104D500000213C2003F0B2FD022200213C2003F0A0
:104D6000ADFDA12200213C2003F0A8FDC8220021B6
:104D70003C2003F0A3FDDA2200213C2003F09EFD3D
:104D8000022200213C2003F099FD812200213C20D9
:104D900003F094FDCF2200213C2003F08FFDD922A7
:104DA00000213C2003F08AFDF12200213C2003F089
:104DB00085FDDB2200213C2003F080FD4022002104
:104DC0003C2003F07BFD2E2200213C2003F076FDE9
:104DD000A42200213C2003F071FDA62200213C20EA
:104DE00003F06CFDAF2200213C2003F067FD0020A2
:104DF00000F07CF900F0F0F90348002101804180C7
:104E00000121417110BD0000780000202DE9F04122
:104E10001E4615460F460446FFF7E0FE68B16006E1
:104E2000000EFFF7ABFEFFF725FF48B13846FFF74E
:104E3000A5FEFFF71FFF00240CE00120BDE8F08174
:104E4000FFF7F4FEF9E7305DFFF798FEFFF712FF7A
:104E500010B1641CAC42F6DBFFF7E8FE0020EDE782
:104E6000002802DD00F214507047FDDAA0F2145061
:104E70007047884200DD0846904200DA10467047CD
:104E8000704700002DE9F04F89B0644C07A8CDE9C8
:104E9000004004F1160106AB02AA881F01F096FC3F
:104EA0002088C0057DD50298FBF70DFD6FF01D052C
:104EB0002946FBF75DFB83460398FBF704FD294673
:104EC000FBF756FB82460498FBF7FDFC2946FBF7EF
:104ED0004FFB81460598FBF7F6FC2946FBF748FB9C
:104EE000804601215846FBF743FB07464946FBF73E
:104EF000CFFA05464FF040415046FBF7C9FA064647
:104F00004146FBF7C5FA2946FBF76AFAFBF746FD6F
:104F100000F0C0FF4FF06632414BFBF7DCFBFBF7C4
:104F200050FD606001214846FBF722FB4946009096
:104F3000FBF7AEFA054630465146FBF7A9FA29467B
:104F4000FBF7A0FA4FF07E51FBF74AFAFBF726FD7C
:104F500005460E4638465146FBF79AFA0746414643
:104F60000098FBF795FA3946FBF73AFAFBF716FD7E
:104F70002A46334601F0D6F94FF06632284BFBF74C
:104F8000AAFBFBF71EFD4146A0600846FBF780FA2E
:104F9000074649460846FBF77BFA0646514608464F
:104FA00000E030E0FBF774FA054659460846FBF787
:104FB0006FFA2946FBF714FA3146FBF763FA3946D4
:104FC000FBF760FAFBF7EAFC05460E4641465846F9
:104FD000FBF75EFA074649465046FBF759FA394651
:104FE000FBF7FEF90121FBF7C3FAFBF7D7FC2A46D2
:104FF000334601F097F94FF06632094BFBF76BFB34
:10500000FBF7DFFCE060074861680160A168416070
:10501000E168816009B0BDE8F08F0000BC000020AD
:1050200066A64C40A4080020002118B1012803D036
:1050300000207047034A00E0034A1068116000B284
:1050400070470000240400402408004010B54221AD
:10505000D020FEF7B6FE04464121D020FEF7B1FE77
:1050600004EB0020FBF738FCB0F18E4F03DD4FF06E
:105070008F41FBF707FA0949FBF73CFAFBF78EFC77
:10508000074A084BFBF780FA0022074BFBF723FB8C
:10509000FBF797FCBDE81040FBF734BC0000AA43C7
:1050A000A4703D0AD74342400000244070B58028D8
:1050B00013D2202911D20B4B012401F007051E79D0
:1050C000AC40094BC90800EBC1100EB132B101E090
:1050D000012A03D0195CA143195470BD195C214306
:1050E000FAE70000780000209406002028B1FF2293
:1050F0004FF400710248FBF778B80022F8E700008F
:1051000094060020014A10805180704778000020EA
:105110002DE9F047814625480D46924601882A78B8
:105120001144802905D280464088697808442028A7
:1051300002D30020BDE8F08700262AE0A9F1200173
:1051400001FB00606A68002432F810701DE000BFA7
:1051500007FA04F0000409D5B8F80210B8F8000006
:105160003144204489B280B252460BE0BAF1000FBC
:105170001AD00022B8F80210B8F8000031442044D8
:1051800089B280B2FFF792FF641C2878A042DFD872
:10519000761C6878B042D1D8B8F800102A78484612
:1051A0001144A8F80010C5E70122E3E778000020C9
:1051B00070B515460E46044609E02A463146FFF70B
:1051C000A7FF2178884201D0C8B270BD641C207846
:1051D0000028F2D1C0B270BD70B5104D002400BFE0
:1051E00004F1B000C2B200213C2003F067FB0022B2
:1051F00011463C2003F062FB102200213C2003F00A
:105200005DFB05EBC412802340213C2003F05CFBD6
:10521000641CE4B2082CE3D370BD000094060020A7
:10522000704700002DE9F047154D89462E1D0024DA
:1052300008B92C603460124F083707F10408B9F13F
:10524000000F02D13C60C8F80040002804DD03F0E4
:10525000E3F930602C6003E0346003F0DDF928608E
:10526000B9F1000006DD03F0D7F93860C8F8004056
:10527000BDE8F0873C6003F0CFF9C8F80000F7E71D
:1052800034340140FDF732B830B595B02821684676
:10529000FAF7B2FF14210AA8FAF7AEFF18210FA8F7
:1052A000FAF7AAFF01210804CDE9001000250295B4
:1052B00002240491CDE907404FF4E01009906846BC
:1052C000FDF76EFA08B172B6FEE70AA90F2081E871
:1052D00031004FF48060CDE90D0502210AA8FDF7E9
:1052E00083F908B172B6FEE74FF4004011900F94B5
:1052F0000FA8FDF703F9002801D072B6FEE715B03C
:1053000030BD70470148FDF74DBE00009C040020F1
:10531000F0B50268204C214D214E224F224B4FF018
:10532000804CA04209D0984207D0604505D0A842E1
:1053300003D0B04201D0B84204D122F0700E4A68C6
:1053400042EA0E02A04209D0984207D0604505D03B
:10535000A84203D0B04201D0B84203D122F4407534
:10536000CA682A434D6922F080022A4302608A6893
:10537000C2620A688262A04201D0984201D10969E2
:105380000163012141610169C90703D0016921F06D
:1053900001010161F0BD0000002C0140000400404B
:1053A00000080040000C00400034014010B501F03E
:1053B0001F030121046A99408C430462016A9A40E8
:1053C0001143016210BD10B5846842EA032224F43F
:1053D0007F440A432243826010BD826822F070023B
:1053E0000A4342F00701816070470000F0B5036A8C
:1053F000026A22F00102026242688469124E24F0BD
:1054000073050C682C4323F002058B682B430D4D6C
:10541000A84201D0B04205D123F00807CB683B4336
:1054200023F00403A84201D0B04205D14D6922F413
:10543000407215438A692A43426084614968416326
:105440000362F0BD002C014000340140F0B5026A57
:10545000036A23F010030362436884690D6824F42F
:10546000E64444EA05248D6822F0200242EA05124F
:105470000F4D104EA84201D0B04206D1CF6822F0A5
:10548000800242EA071222F04002A84201D0B04254
:1054900007D14D6923F4406343EA85038D6943EAEC
:1054A000850343608461496881630262F0BD000046
:1054B000002C014000340140F0B5026A036A23F475
:1054C000807303624368C46922F4007224F0730598
:1054D0000C68124E2C438D6842EA05220E4DA842FC
:1054E00001D0B04206D1CF6822F4006242EA07221E
:1054F00022F48062A84201D0B04207D14D6923F462
:10550000405343EA05138D6943EA05134360C461C0
:105510004968C1630262F0BD002C014000340140C3
:1055200030B5046A026A22F4805202624268C3699A
:105530000D6823F4E64343EA05238D6824F4005400
:1055400044EA0534084DA84202D0084DA84204D1CF
:105550004D6922F4804242EA85124260C361496883
:105560000164046230BD0000002C014000340140A1
:1055700010B5036A046A24F001040462846924F00B
:10558000F00444EA021423F00A020A43846102622E
:1055900010BD10B5036A046A24F010040462846923
:1055A00023F0A00324F4704444EA023243EA0111D8
:1055B0008261016210BD000010B5044610488442AB
:1055C00012D810480078FBF787F92146FBF716FA46
:1055D0000AD30D480D490068884205DB0C48007865
:1055E000012801D0002010BD0A4A012000211160CD
:1055F000121D1160121D1160121D116010BD0000FE
:10560000000020C2B0000020380200209A99194101
:1056100050000020343401402DE9F041264D274947
:105620002A46EE6D0978126905F1800403290FD02E
:1056300007290DD009290BD004290BD0082909D03E
:105640000A2907D005290BD006290BD0002201E03A
:1056500082F000426260012924D0022922D003E0B6
:10566000174900E017496160D5F86410FAF710FF98
:10567000DFF854804146FAF73DFF0746314660683F
:10568000FAF706FF4146FAF735FF3946FAF7A8FE62
:105690000E490968FAF7A4FE0D49A06009780329AC
:1056A00002D005E0296EE1E7A968FAF7F1FEA060F3
:1056B000BDE8F041FBF726B9F0000020E001002032
:1056C000000048C2000048420000C84264000020B8
:1056D000030000200148FEF717B90000BC050020B8
:1056E00010B5406A0021C185C184FEF70BF910BDD9
:1056F00001680C3151E8002F22F4907241E8002338
:10570000002BF5D10168143151E8002F22F001027D
:1057100041E80023002BF5D1016B012909D1016873
:105720000C3151E8002F22F0100241E80023002B39
:10573000F5D1202180F8421000210163704708B59F
:1057400090F84210222901D0022008BD82684FF44F
:1057500080539A4201D1016921B1816A9A421BD0DA
:105760004AB10AE00268816A5268C2F308020A80FC
:10577000816A891C08E0026972B10268526802F00D
:105780007F020A70816A491C8162C18D491E090429
:10579000090CC18503D01BE002685268F1E701687B
:1057A000CA6822F02002CA600168CA6822F48072C6
:1057B000CA6001684A6922F001024A61202180F82A
:1057C000421000214163026B012A03D0FEF7A6FAC2
:1057D000002008BD016301680C3151E8002F22F060
:1057E000100241E80023002BF5D101680A68D206B7
:1057F00002D50A6849680091818DFDF7FDFDE7E754
:1058000070B5044600680169E26821F44051114313
:1058100001612169A0680843616908432168CA6879
:1058200041F20C639A430243CA6020684169A2694D
:1058300021F44071114341611E492068884202D120
:10584000FCF778FF01E0FCF765FF00EBC00101EB1E
:105850000012606864218000B2FBF0F3B3FBF1F347
:105860006FF018067343B2FBF0F5B2FBF0F605EBF0
:105870008305322303EB0515B5FBF1F5B6FBF1F615
:1058800005F0F00505EB0615B2FBF0F6B2FBF0F003
:10589000B0FBF1F06FF01802504306EB800003EB11
:1058A0000010B0FBF1F0216800F00F002844886080
:1058B00070BD00000038014081628285C2850021F0
:1058C0004164222180F84210016921B10168CA684F
:1058D00042F48072CA6001684A6942F001024A617A
:1058E0000068C16841F02001C160002070472DE9C7
:1058F000F843984617460D460446089E24E0701C5F
:1059000022D0FCF7F1FBA0EB0800B0421AD8CEB1D0
:105910002068C168490717D5802D15D0402D13D0B8
:105920000168C94309070FD4016800254068009049
:105930002046FFF7DDFE0820606484F84050012017
:10594000BDE8F8830320FBE72068006835EA000023
:1059500004D00020B842D2D00020F1E70120F9E7BE
:105960000148FDF7D1BF0000040600200148FDF703
:10597000CBBF00004C060020FEE700002DE9F041FF
:10598000404A414C1278E368012A61D0072A5FD06F
:10599000082A5DD0022A5DD0092A5BD00A2A59D094
:1059A0000B2A5AD00C2A5AD0384A1268E2670844A7
:1059B0004042FAF788FF05466067A06FFAF7EEFFEE
:1059C000334A344BFAF787FEFAF7FBFF07462846BF
:1059D000FAF7E4FF304A314BFAF77DFE05460E46F2
:1059E0003846FAF7DBFF2A463346FAF7CDFDFAF7D9
:1059F000E8FF254D074680350146A0672868FAF77D
:105A0000EFFCE16FFAF7ECFC25492860884202DCE4
:105A10002449884200D92960A16D2868FAF738FD29
:105A20002149FAF767FD06463846616DFAF730FD01
:105A30001E49FAF75FFD3146FAF724FD20671C483E
:105A400001681C480068FFF7B7FD012809D00AE08B
:105A5000E367ACE783F00042A8E7174AA6E7174AD6
:105A6000A4E70020286016480078032801D0206FA2
:105A700004E06168206FFAF70BFD2067BDE8F04194
:105A8000FAF740BFE0010020F00000206000002095
:105A9000E17A14AE47E1EA3F7B14AE47E17AC43FB6
:105AA0000000FA450000FAC50000C8420000C8C264
:105AB0003802002028000020000020C10000204102
:105AC000030000200FB4054B10B503A9044A029847
:105AD00000F0BEF810BC5DF814FB0000856E0008F5
